{
  "contractName": "Billing",
  "abi": [
    {
      "inputs": [
        {
          "internalType": "address",
          "name": "_insurer",
          "type": "address"
        }
      ],
      "stateMutability": "nonpayable",
      "type": "constructor"
    },
    {
      "inputs": [],
      "name": "admin",
      "outputs": [
        {
          "internalType": "address",
          "name": "",
          "type": "address"
        }
      ],
      "stateMutability": "view",
      "type": "function",
      "constant": true
    },
    {
      "inputs": [
        {
          "internalType": "uint256",
          "name": "",
          "type": "uint256"
        }
      ],
      "name": "bills",
      "outputs": [
        {
          "internalType": "uint256",
          "name": "serviceId",
          "type": "uint256"
        },
        {
          "internalType": "uint256",
          "name": "amount",
          "type": "uint256"
        },
        {
          "internalType": "bool",
          "name": "isPaid",
          "type": "bool"
        }
      ],
      "stateMutability": "view",
      "type": "function",
      "constant": true
    },
    {
      "inputs": [],
      "name": "insurer",
      "outputs": [
        {
          "internalType": "address",
          "name": "",
          "type": "address"
        }
      ],
      "stateMutability": "view",
      "type": "function",
      "constant": true
    },
    {
      "inputs": [
        {
          "internalType": "uint256",
          "name": "serviceId",
          "type": "uint256"
        },
        {
          "internalType": "uint256",
          "name": "amount",
          "type": "uint256"
        }
      ],
      "name": "addBill",
      "outputs": [],
      "stateMutability": "nonpayable",
      "type": "function"
    },
    {
      "inputs": [
        {
          "internalType": "uint256",
          "name": "serviceId",
          "type": "uint256"
        }
      ],
      "name": "payBill",
      "outputs": [],
      "stateMutability": "nonpayable",
      "type": "function"
    }
  ],
  "bytecode": "0x608060405234801561001057600080fd5b5060405161051a38038061051a833981810160405281019061003291906100ce565b336000806101000a81548173ffffffffffffffffffffffffffffffffffffffff021916908373ffffffffffffffffffffffffffffffffffffffff16021790555080600160006101000a81548173ffffffffffffffffffffffffffffffffffffffff021916908373ffffffffffffffffffffffffffffffffffffffff16021790555050610149565b6000815190506100c881610132565b92915050565b6000602082840312156100e4576100e361012d565b5b60006100f2848285016100b9565b91505092915050565b60006101068261010d565b9050919050565b600073ffffffffffffffffffffffffffffffffffffffff82169050919050565b600080fd5b61013b816100fb565b811461014657600080fd5b50565b6103c2806101586000396000f3fe608060405234801561001057600080fd5b50600436106100575760003560e01c806328bdcde81461005c578063ccf29a8c1461008e578063dbc837c5146100aa578063f0975190146100c8578063f851a440146100e4575b600080fd5b6100766004803603810190610071919061023c565b610102565b604051610085939291906102f1565b60405180910390f35b6100a860048036038101906100a39190610269565b610139565b005b6100b26101a5565b6040516100bf91906102d6565b60405180910390f35b6100e260048036038101906100dd919061023c565b6101cb565b005b6100ec610203565b6040516100f991906102d6565b60405180910390f35b60026020528060005260406000206000915090508060000154908060010154908060020160009054906101000a900460ff16905083565b60405180606001604052808381526020018281526020016000151581525060026000848152602001908152602001600020600082015181600001556020820151816001015560408201518160020160006101000a81548160ff0219169083151502179055509050505050565b600160009054906101000a900473ffffffffffffffffffffffffffffffffffffffff1681565b600060026000838152602001908152602001600020905060018160020160006101000a81548160ff0219169083151502179055505050565b60008054906101000a900473ffffffffffffffffffffffffffffffffffffffff1681565b60008135905061023681610375565b92915050565b60006020828403121561025257610251610370565b5b600061026084828501610227565b91505092915050565b600080604083850312156102805761027f610370565b5b600061028e85828601610227565b925050602061029f85828601610227565b9150509250929050565b6102b281610328565b82525050565b6102c18161033a565b82525050565b6102d081610366565b82525050565b60006020820190506102eb60008301846102a9565b92915050565b600060608201905061030660008301866102c7565b61031360208301856102c7565b61032060408301846102b8565b949350505050565b600061033382610346565b9050919050565b60008115159050919050565b600073ffffffffffffffffffffffffffffffffffffffff82169050919050565b6000819050919050565b600080fd5b61037e81610366565b811461038957600080fd5b5056fea26469706673582212202b62974a9e1e3ca71c912ff85018831a1ada17ff0f628bd973f04624a7deddc264736f6c63430008070033",
  "immutableReferences": {},
  "source": "// SPDX-License-Identifier: MIT\npragma solidity ^0.8.0;\n\ncontract Billing {\n    address public admin;\n    address public insurer;\n\n    struct Bill {\n        uint serviceId;\n        uint amount;\n        bool isPaid;\n    }\n\n    mapping(uint => Bill) public bills;\n\n    constructor(address _insurer) {\n        admin = msg.sender;\n        insurer = _insurer;\n    }\n\n    function addBill(uint serviceId, uint amount) public  {\n        bills[serviceId] = Bill(serviceId, amount, false);\n    }\n\n    function payBill(uint serviceId) public  {\n        Bill storage bill = bills[serviceId];\n        bill.isPaid = true;\n    }\n}\n",
  "sourcePath": "/Users/usmanahmed/Desktop/project02_i200820_i200794_i202411/contracts/Billing.sol",
  "compiler": {
    "name": "solc",
    "version": "0.8.7+commit.e28d00a7.Emscripten.clang"
  },
  "schemaVersion": "3.4.16",
  "updatedAt": "2024-05-14T09:39:31.706Z",
  "networkType": "ethereum",
  "devdoc": {
    "kind": "dev",
    "methods": {},
    "version": 1
  },
  "userdoc": {
    "kind": "user",
    "methods": {},
    "version": 1
  }
}