{
  "contractName": "PatientRecords",
  "abi": [
    {
      "inputs": [],
      "stateMutability": "nonpayable",
      "type": "constructor"
    },
    {
      "inputs": [],
      "name": "admin",
      "outputs": [
        {
          "internalType": "address",
          "name": "",
          "type": "address"
        }
      ],
      "stateMutability": "view",
      "type": "function",
      "constant": true
    },
    {
      "inputs": [
        {
          "internalType": "address",
          "name": "",
          "type": "address"
        }
      ],
      "name": "doctors",
      "outputs": [
        {
          "internalType": "bool",
          "name": "",
          "type": "bool"
        }
      ],
      "stateMutability": "view",
      "type": "function",
      "constant": true
    },
    {
      "inputs": [
        {
          "internalType": "uint256",
          "name": "",
          "type": "uint256"
        }
      ],
      "name": "records",
      "outputs": [
        {
          "internalType": "uint256",
          "name": "id",
          "type": "uint256"
        },
        {
          "internalType": "string",
          "name": "diagnosis",
          "type": "string"
        },
        {
          "internalType": "string",
          "name": "treatmentPlan",
          "type": "string"
        },
        {
          "internalType": "uint256",
          "name": "lastUpdated",
          "type": "uint256"
        }
      ],
      "stateMutability": "view",
      "type": "function",
      "constant": true
    },
    {
      "inputs": [
        {
          "internalType": "address",
          "name": "doctor",
          "type": "address"
        }
      ],
      "name": "addDoctor",
      "outputs": [],
      "stateMutability": "nonpayable",
      "type": "function"
    },
    {
      "inputs": [
        {
          "internalType": "address",
          "name": "doctor",
          "type": "address"
        }
      ],
      "name": "removeDoctor",
      "outputs": [],
      "stateMutability": "nonpayable",
      "type": "function"
    },
    {
      "inputs": [
        {
          "internalType": "uint256",
          "name": "patientId",
          "type": "uint256"
        },
        {
          "internalType": "string",
          "name": "diagnosis",
          "type": "string"
        },
        {
          "internalType": "string",
          "name": "treatmentPlan",
          "type": "string"
        }
      ],
      "name": "addOrUpdateRecord",
      "outputs": [],
      "stateMutability": "nonpayable",
      "type": "function"
    },
    {
      "inputs": [
        {
          "internalType": "uint256",
          "name": "patientId",
          "type": "uint256"
        }
      ],
      "name": "getRecord",
      "outputs": [
        {
          "components": [
            {
              "internalType": "uint256",
              "name": "id",
              "type": "uint256"
            },
            {
              "internalType": "string",
              "name": "diagnosis",
              "type": "string"
            },
            {
              "internalType": "string",
              "name": "treatmentPlan",
              "type": "string"
            },
            {
              "internalType": "uint256",
              "name": "lastUpdated",
              "type": "uint256"
            }
          ],
          "internalType": "struct PatientRecords.Record",
          "name": "",
          "type": "tuple"
        }
      ],
      "stateMutability": "view",
      "type": "function",
      "constant": true
    }
  ],
  "bytecode": "0x608060405234801561001057600080fd5b50336000806101000a81548173ffffffffffffffffffffffffffffffffffffffff021916908373ffffffffffffffffffffffffffffffffffffffff160217905550610c14806100606000396000f3fe608060405234801561001057600080fd5b506004361061007d5760003560e01c80634780468f1161005b5780634780468f1461010157806398fc90e91461011d578063a9583c2214610139578063f851a440146101695761007d565b806303e9e609146100825780630d1d6622146100b257806334461067146100ce575b600080fd5b61009c60048036038101906100979190610742565b610187565b6040516100a99190610948565b60405180910390f35b6100cc60048036038101906100c7919061076f565b6102ec565b005b6100e860048036038101906100e39190610742565b610376565b6040516100f8949392919061096a565b60405180910390f35b61011b60048036038101906101169190610715565b6104b6565b005b61013760048036038101906101329190610715565b610511565b005b610153600480360381019061014e9190610715565b61056c565b604051610160919061092d565b60405180910390f35b61017161058c565b60405161017e9190610912565b60405180910390f35b61018f6105b0565b60016000838152602001908152602001600020604051806080016040529081600082015481526020016001820180546101c790610aca565b80601f01602080910402602001604051908101604052809291908181526020018280546101f390610aca565b80156102405780601f1061021557610100808354040283529160200191610240565b820191906000526020600020905b81548152906001019060200180831161022357829003601f168201915b5050505050815260200160028201805461025990610aca565b80601f016020809104026020016040519081016040528092919081815260200182805461028590610aca565b80156102d25780601f106102a7576101008083540402835291602001916102d2565b820191906000526020600020905b8154815290600101906020018083116102b557829003601f168201915b505050505081526020016003820154815250509050919050565b604051806080016040528084815260200183815260200182815260200142815250600160008581526020019081526020016000206000820151816000015560208201518160010190805190602001906103469291906105d8565b5060408201518160020190805190602001906103639291906105d8565b5060608201518160030155905050505050565b600160205280600052604060002060009150905080600001549080600101805461039f90610aca565b80601f01602080910402602001604051908101604052809291908181526020018280546103cb90610aca565b80156104185780601f106103ed57610100808354040283529160200191610418565b820191906000526020600020905b8154815290600101906020018083116103fb57829003601f168201915b50505050509080600201805461042d90610aca565b80601f016020809104026020016040519081016040528092919081815260200182805461045990610aca565b80156104a65780601f1061047b576101008083540402835291602001916104a6565b820191906000526020600020905b81548152906001019060200180831161048957829003601f168201915b5050505050908060030154905084565b6001600260008373ffffffffffffffffffffffffffffffffffffffff1673ffffffffffffffffffffffffffffffffffffffff16815260200190815260200160002060006101000a81548160ff02191690831515021790555050565b6000600260008373ffffffffffffffffffffffffffffffffffffffff1673ffffffffffffffffffffffffffffffffffffffff16815260200190815260200160002060006101000a81548160ff02191690831515021790555050565b60026020528060005260406000206000915054906101000a900460ff1681565b60008054906101000a900473ffffffffffffffffffffffffffffffffffffffff1681565b6040518060800160405280600081526020016060815260200160608152602001600081525090565b8280546105e490610aca565b90600052602060002090601f016020900481019282610606576000855561064d565b82601f1061061f57805160ff191683800117855561064d565b8280016001018555821561064d579182015b8281111561064c578251825591602001919060010190610631565b5b50905061065a919061065e565b5090565b5b8082111561067757600081600090555060010161065f565b5090565b600061068e610689846109e2565b6109bd565b9050828152602081018484840111156106aa576106a9610b90565b5b6106b5848285610a88565b509392505050565b6000813590506106cc81610bb0565b92915050565b600082601f8301126106e7576106e6610b8b565b5b81356106f784826020860161067b565b91505092915050565b60008135905061070f81610bc7565b92915050565b60006020828403121561072b5761072a610b9a565b5b6000610739848285016106bd565b91505092915050565b60006020828403121561075857610757610b9a565b5b600061076684828501610700565b91505092915050565b60008060006060848603121561078857610787610b9a565b5b600061079686828701610700565b935050602084013567ffffffffffffffff8111156107b7576107b6610b95565b5b6107c3868287016106d2565b925050604084013567ffffffffffffffff8111156107e4576107e3610b95565b5b6107f0868287016106d2565b9150509250925092565b61080381610a40565b82525050565b61081281610a52565b82525050565b600061082382610a13565b61082d8185610a1e565b935061083d818560208601610a97565b61084681610b9f565b840191505092915050565b600061085c82610a13565b6108668185610a2f565b9350610876818560208601610a97565b61087f81610b9f565b840191505092915050565b60006080830160008301516108a260008601826108f4565b50602083015184820360208601526108ba8282610818565b915050604083015184820360408601526108d48282610818565b91505060608301516108e960608601826108f4565b508091505092915050565b6108fd81610a7e565b82525050565b61090c81610a7e565b82525050565b600060208201905061092760008301846107fa565b92915050565b60006020820190506109426000830184610809565b92915050565b60006020820190508181036000830152610962818461088a565b905092915050565b600060808201905061097f6000830187610903565b81810360208301526109918186610851565b905081810360408301526109a58185610851565b90506109b46060830184610903565b95945050505050565b60006109c76109d8565b90506109d38282610afc565b919050565b6000604051905090565b600067ffffffffffffffff8211156109fd576109fc610b5c565b5b610a0682610b9f565b9050602081019050919050565b600081519050919050565b600082825260208201905092915050565b600082825260208201905092915050565b6000610a4b82610a5e565b9050919050565b60008115159050919050565b600073ffffffffffffffffffffffffffffffffffffffff82169050919050565b6000819050919050565b82818337600083830152505050565b60005b83811015610ab5578082015181840152602081019050610a9a565b83811115610ac4576000848401525b50505050565b60006002820490506001821680610ae257607f821691505b60208210811415610af657610af5610b2d565b5b50919050565b610b0582610b9f565b810181811067ffffffffffffffff82111715610b2457610b23610b5c565b5b80604052505050565b7f4e487b7100000000000000000000000000000000000000000000000000000000600052602260045260246000fd5b7f4e487b7100000000000000000000000000000000000000000000000000000000600052604160045260246000fd5b600080fd5b600080fd5b600080fd5b600080fd5b6000601f19601f8301169050919050565b610bb981610a40565b8114610bc457600080fd5b50565b610bd081610a7e565b8114610bdb57600080fd5b5056fea2646970667358221220db44d689c304b4721fab1aa1368f1d2d4c9a87d03028aa545b179f03ddafb4ab64736f6c63430008070033",
  "immutableReferences": {},
  "source": "// SPDX-License-Identifier: MIT\npragma solidity ^0.8.0;\n\ncontract PatientRecords {\n    address public admin;\n\n    struct Record {\n        uint id;\n        string diagnosis;\n        string treatmentPlan;\n        uint lastUpdated;\n    }\n\n    mapping(uint => Record) public records; // maps a patient ID to a Record\n    mapping(address => bool) public doctors; // authorized doctors\n\n    constructor() {\n        admin = msg.sender;\n    }\n\n    function addDoctor(address doctor) public  {\n        doctors[doctor] = true;\n    }\n\n    function removeDoctor(address doctor) public  {\n        doctors[doctor] = false;\n    }\n\n    function addOrUpdateRecord(uint patientId, string memory diagnosis, string memory treatmentPlan) public  {\n        records[patientId] = Record(patientId, diagnosis, treatmentPlan, block.timestamp);\n    }\n\n    function getRecord(uint patientId) public view  returns (Record memory) {\n        return records[patientId];\n    }\n}\n",
  "sourcePath": "/Users/usmanahmed/Desktop/project02_i200820_i200794_i202411/contracts/PatientRecords.sol",
  "compiler": {
    "name": "solc",
    "version": "0.8.7+commit.e28d00a7.Emscripten.clang"
  },
  "schemaVersion": "3.4.16",
  "updatedAt": "2024-05-14T09:39:31.702Z",
  "networkType": "ethereum",
  "devdoc": {
    "kind": "dev",
    "methods": {},
    "version": 1
  },
  "userdoc": {
    "kind": "user",
    "methods": {},
    "version": 1
  }
}