{
  "contractName": "SupplyChain",
  "abi": [
    {
      "inputs": [],
      "stateMutability": "nonpayable",
      "type": "constructor"
    },
    {
      "inputs": [],
      "name": "admin",
      "outputs": [
        {
          "internalType": "address",
          "name": "",
          "type": "address"
        }
      ],
      "stateMutability": "view",
      "type": "function",
      "constant": true
    },
    {
      "inputs": [
        {
          "internalType": "uint256",
          "name": "",
          "type": "uint256"
        }
      ],
      "name": "items",
      "outputs": [
        {
          "internalType": "uint256",
          "name": "itemId",
          "type": "uint256"
        },
        {
          "internalType": "string",
          "name": "itemName",
          "type": "string"
        },
        {
          "internalType": "bool",
          "name": "isReceived",
          "type": "bool"
        }
      ],
      "stateMutability": "view",
      "type": "function",
      "constant": true
    },
    {
      "inputs": [
        {
          "internalType": "uint256",
          "name": "itemId",
          "type": "uint256"
        },
        {
          "internalType": "string",
          "name": "itemName",
          "type": "string"
        }
      ],
      "name": "addItem",
      "outputs": [],
      "stateMutability": "nonpayable",
      "type": "function"
    },
    {
      "inputs": [
        {
          "internalType": "uint256",
          "name": "itemId",
          "type": "uint256"
        }
      ],
      "name": "markAsReceived",
      "outputs": [],
      "stateMutability": "nonpayable",
      "type": "function"
    }
  ],
  "bytecode": "0x608060405234801561001057600080fd5b50336000806101000a81548173ffffffffffffffffffffffffffffffffffffffff021916908373ffffffffffffffffffffffffffffffffffffffff160217905550610712806100606000396000f3fe608060405234801561001057600080fd5b506004361061004c5760003560e01c806351aa948614610051578063be572d521461006d578063bfb231d214610089578063f851a440146100bb575b600080fd5b61006b6004803603810190610066919061039b565b6100d9565b005b610087600480360381019061008291906103c8565b610111565b005b6100a3600480360381019061009e919061039b565b610190565b6040516100b2939291906104a5565b60405180910390f35b6100c361024f565b6040516100d0919061048a565b60405180910390f35b600060016000838152602001908152602001600020905060018160020160006101000a81548160ff0219169083151502179055505050565b60405180606001604052808381526020018281526020016000151581525060016000848152602001908152602001600020600082015181600001556020820151816001019080519060200190610168929190610273565b5060408201518160020160006101000a81548160ff0219169083151502179055509050505050565b60016020528060005260406000206000915090508060000154908060010180546101b9906105df565b80601f01602080910402602001604051908101604052809291908181526020018280546101e5906105df565b80156102325780601f1061020757610100808354040283529160200191610232565b820191906000526020600020905b81548152906001019060200180831161021557829003601f168201915b5050505050908060020160009054906101000a900460ff16905083565b60008054906101000a900473ffffffffffffffffffffffffffffffffffffffff1681565b82805461027f906105df565b90600052602060002090601f0160209004810192826102a157600085556102e8565b82601f106102ba57805160ff19168380011785556102e8565b828001600101855582156102e8579182015b828111156102e75782518255916020019190600101906102cc565b5b5090506102f591906102f9565b5090565b5b808211156103125760008160009055506001016102fa565b5090565b600061032961032484610508565b6104e3565b905082815260208101848484011115610345576103446106a5565b5b61035084828561059d565b509392505050565b600082601f83011261036d5761036c6106a0565b5b813561037d848260208601610316565b91505092915050565b600081359050610395816106c5565b92915050565b6000602082840312156103b1576103b06106af565b5b60006103bf84828501610386565b91505092915050565b600080604083850312156103df576103de6106af565b5b60006103ed85828601610386565b925050602083013567ffffffffffffffff81111561040e5761040d6106aa565b5b61041a85828601610358565b9150509250929050565b61042d81610555565b82525050565b61043c81610567565b82525050565b600061044d82610539565b6104578185610544565b93506104678185602086016105ac565b610470816106b4565b840191505092915050565b61048481610593565b82525050565b600060208201905061049f6000830184610424565b92915050565b60006060820190506104ba600083018661047b565b81810360208301526104cc8185610442565b90506104db6040830184610433565b949350505050565b60006104ed6104fe565b90506104f98282610611565b919050565b6000604051905090565b600067ffffffffffffffff82111561052357610522610671565b5b61052c826106b4565b9050602081019050919050565b600081519050919050565b600082825260208201905092915050565b600061056082610573565b9050919050565b60008115159050919050565b600073ffffffffffffffffffffffffffffffffffffffff82169050919050565b6000819050919050565b82818337600083830152505050565b60005b838110156105ca5780820151818401526020810190506105af565b838111156105d9576000848401525b50505050565b600060028204905060018216806105f757607f821691505b6020821081141561060b5761060a610642565b5b50919050565b61061a826106b4565b810181811067ffffffffffffffff8211171561063957610638610671565b5b80604052505050565b7f4e487b7100000000000000000000000000000000000000000000000000000000600052602260045260246000fd5b7f4e487b7100000000000000000000000000000000000000000000000000000000600052604160045260246000fd5b600080fd5b600080fd5b600080fd5b600080fd5b6000601f19601f8301169050919050565b6106ce81610593565b81146106d957600080fd5b5056fea264697066735822122010c6755a91cdf8bf8b0dd0eb4229ce4fa8fd6e53dd9f5bb2f2828ecdbd8a4f5564736f6c63430008070033",
  "immutableReferences": {},
  "source": "// SPDX-License-Identifier: MIT\npragma solidity ^0.8.0;\n\ncontract SupplyChain {\n    address public admin;\n\n    struct Item {\n        uint itemId;\n        string itemName;\n        bool isReceived;\n    }\n\n    mapping(uint => Item) public items;\n\n    constructor() {\n        admin = msg.sender;\n    }\n\n    function addItem(uint itemId, string memory itemName) public  {\n        items[itemId] = Item(itemId, itemName, false);\n    }\n\n    function markAsReceived(uint itemId) public  {\n        Item storage item = items[itemId];\n        item.isReceived = true;\n    }\n}\n",
  "sourcePath": "/Users/usmanahmed/Desktop/project02_i200820_i200794_i202411/contracts/SupplyChain.sol",
  "compiler": {
    "name": "solc",
    "version": "0.8.7+commit.e28d00a7.Emscripten.clang"
  },
  "schemaVersion": "3.4.16",
  "updatedAt": "2024-05-14T09:39:31.704Z",
  "networkType": "ethereum",
  "devdoc": {
    "kind": "dev",
    "methods": {},
    "version": 1
  },
  "userdoc": {
    "kind": "user",
    "methods": {},
    "version": 1
  }
}